{
  "contractName": "ticketingSystem",
  "abi": [
    {
      "inputs": [],
      "payable": false,
      "stateMutability": "nonpayable",
      "type": "constructor"
    },
    {
      "anonymous": false,
      "inputs": [
        {
          "indexed": true,
          "internalType": "address",
          "name": "_owner",
          "type": "address"
        },
        {
          "indexed": true,
          "internalType": "address",
          "name": "_spender",
          "type": "address"
        },
        {
          "indexed": false,
          "internalType": "uint256",
          "name": "_value",
          "type": "uint256"
        }
      ],
      "name": "Approval",
      "type": "event"
    },
    {
      "anonymous": false,
      "inputs": [
        {
          "indexed": true,
          "internalType": "address",
          "name": "_from",
          "type": "address"
        },
        {
          "indexed": true,
          "internalType": "address",
          "name": "_to",
          "type": "address"
        },
        {
          "indexed": false,
          "internalType": "uint256",
          "name": "_value",
          "type": "uint256"
        }
      ],
      "name": "Transfer",
      "type": "event"
    },
    {
      "constant": false,
      "inputs": [
        {
          "internalType": "string",
          "name": "_name",
          "type": "string"
        },
        {
          "internalType": "uint256",
          "name": "_artistCategory",
          "type": "uint256"
        }
      ],
      "name": "createArtist",
      "outputs": [],
      "payable": false,
      "stateMutability": "nonpayable",
      "type": "function"
    },
    {
      "constant": true,
      "inputs": [
        {
          "internalType": "uint256",
          "name": "_id",
          "type": "uint256"
        }
      ],
      "name": "artistsRegister",
      "outputs": [
        {
          "internalType": "address",
          "name": "owner",
          "type": "address"
        },
        {
          "internalType": "string",
          "name": "name",
          "type": "string"
        },
        {
          "internalType": "uint256",
          "name": "artistCategory",
          "type": "uint256"
        },
        {
          "internalType": "uint256",
          "name": "totalTicket",
          "type": "uint256"
        }
      ],
      "payable": false,
      "stateMutability": "view",
      "type": "function"
    },
    {
      "constant": false,
      "inputs": [
        {
          "internalType": "uint256",
          "name": "_id",
          "type": "uint256"
        },
        {
          "internalType": "string",
          "name": "_name",
          "type": "string"
        },
        {
          "internalType": "uint256",
          "name": "_artistCategory",
          "type": "uint256"
        },
        {
          "internalType": "address payable",
          "name": "_newOwner",
          "type": "address"
        }
      ],
      "name": "modifyArtist",
      "outputs": [],
      "payable": false,
      "stateMutability": "nonpayable",
      "type": "function"
    },
    {
      "constant": true,
      "inputs": [
        {
          "internalType": "address",
          "name": "account",
          "type": "address"
        },
        {
          "internalType": "uint256",
          "name": "idArtist",
          "type": "uint256"
        }
      ],
      "name": "isArtistOwner",
      "outputs": [
        {
          "internalType": "bool",
          "name": "",
          "type": "bool"
        }
      ],
      "payable": false,
      "stateMutability": "view",
      "type": "function"
    },
    {
      "constant": false,
      "inputs": [
        {
          "internalType": "string",
          "name": "_name",
          "type": "string"
        },
        {
          "internalType": "uint256",
          "name": "_capacity",
          "type": "uint256"
        },
        {
          "internalType": "uint256",
          "name": "_standardComission",
          "type": "uint256"
        }
      ],
      "name": "createVenue",
      "outputs": [],
      "payable": false,
      "stateMutability": "nonpayable",
      "type": "function"
    },
    {
      "constant": true,
      "inputs": [
        {
          "internalType": "uint256",
          "name": "_id",
          "type": "uint256"
        }
      ],
      "name": "venuesRegister",
      "outputs": [
        {
          "internalType": "address",
          "name": "owner",
          "type": "address"
        },
        {
          "internalType": "string",
          "name": "name",
          "type": "string"
        },
        {
          "internalType": "uint256",
          "name": "capacity",
          "type": "uint256"
        },
        {
          "internalType": "uint256",
          "name": "standardComission",
          "type": "uint256"
        }
      ],
      "payable": false,
      "stateMutability": "view",
      "type": "function"
    },
    {
      "constant": false,
      "inputs": [
        {
          "internalType": "uint256",
          "name": "_id",
          "type": "uint256"
        },
        {
          "internalType": "string",
          "name": "_name",
          "type": "string"
        },
        {
          "internalType": "uint256",
          "name": "_capacity",
          "type": "uint256"
        },
        {
          "internalType": "uint256",
          "name": "_standardComission",
          "type": "uint256"
        },
        {
          "internalType": "address payable",
          "name": "_newOwner",
          "type": "address"
        }
      ],
      "name": "modifyVenue",
      "outputs": [],
      "payable": false,
      "stateMutability": "nonpayable",
      "type": "function"
    },
    {
      "constant": true,
      "inputs": [
        {
          "internalType": "address",
          "name": "account",
          "type": "address"
        },
        {
          "internalType": "uint256",
          "name": "idVenue",
          "type": "uint256"
        }
      ],
      "name": "isVenueOwner",
      "outputs": [
        {
          "internalType": "bool",
          "name": "",
          "type": "bool"
        }
      ],
      "payable": false,
      "stateMutability": "view",
      "type": "function"
    },
    {
      "constant": false,
      "inputs": [
        {
          "internalType": "uint256",
          "name": "_artistId",
          "type": "uint256"
        },
        {
          "internalType": "uint256",
          "name": "_venueId",
          "type": "uint256"
        },
        {
          "internalType": "uint256",
          "name": "_concertDate",
          "type": "uint256"
        },
        {
          "internalType": "uint256",
          "name": "_ticketPrice",
          "type": "uint256"
        }
      ],
      "name": "createConcert",
      "outputs": [],
      "payable": false,
      "stateMutability": "nonpayable",
      "type": "function"
    },
    {
      "constant": true,
      "inputs": [
        {
          "internalType": "uint256",
          "name": "_id",
          "type": "uint256"
        }
      ],
      "name": "concertsRegister",
      "outputs": [
        {
          "internalType": "uint256",
          "name": "artistId",
          "type": "uint256"
        },
        {
          "internalType": "uint256",
          "name": "concertDate",
          "type": "uint256"
        },
        {
          "internalType": "bool",
          "name": "validatedByArtist",
          "type": "bool"
        },
        {
          "internalType": "bool",
          "name": "validatedByVenue",
          "type": "bool"
        },
        {
          "internalType": "uint256",
          "name": "totalSoldTicket",
          "type": "uint256"
        },
        {
          "internalType": "uint256",
          "name": "totalMoneyCollected",
          "type": "uint256"
        }
      ],
      "payable": false,
      "stateMutability": "view",
      "type": "function"
    },
    {
      "constant": false,
      "inputs": [
        {
          "internalType": "uint256",
          "name": "_concertId",
          "type": "uint256"
        }
      ],
      "name": "validateConcert",
      "outputs": [],
      "payable": false,
      "stateMutability": "nonpayable",
      "type": "function"
    },
    {
      "constant": false,
      "inputs": [
        {
          "internalType": "uint256",
          "name": "_concertId",
          "type": "uint256"
        },
        {
          "internalType": "address payable",
          "name": "_ticketOwner",
          "type": "address"
        }
      ],
      "name": "emitTicket",
      "outputs": [],
      "payable": false,
      "stateMutability": "nonpayable",
      "type": "function"
    },
    {
      "constant": true,
      "inputs": [
        {
          "internalType": "uint256",
          "name": "_id",
          "type": "uint256"
        }
      ],
      "name": "ticketsRegister",
      "outputs": [
        {
          "internalType": "address",
          "name": "owner",
          "type": "address"
        },
        {
          "internalType": "uint256",
          "name": "concertId",
          "type": "uint256"
        },
        {
          "internalType": "bool",
          "name": "isAvailable",
          "type": "bool"
        }
      ],
      "payable": false,
      "stateMutability": "view",
      "type": "function"
    },
    {
      "constant": false,
      "inputs": [
        {
          "internalType": "uint256",
          "name": "_id",
          "type": "uint256"
        }
      ],
      "name": "useTicket",
      "outputs": [],
      "payable": false,
      "stateMutability": "nonpayable",
      "type": "function"
    },
    {
      "constant": true,
      "inputs": [
        {
          "internalType": "address",
          "name": "account",
          "type": "address"
        },
        {
          "internalType": "uint256",
          "name": "idTicket",
          "type": "uint256"
        }
      ],
      "name": "isTicketOwner",
      "outputs": [
        {
          "internalType": "bool",
          "name": "",
          "type": "bool"
        }
      ],
      "payable": false,
      "stateMutability": "view",
      "type": "function"
    },
    {
      "constant": true,
      "inputs": [
        {
          "internalType": "address",
          "name": "_owner",
          "type": "address"
        }
      ],
      "name": "balanceOf",
      "outputs": [
        {
          "internalType": "uint256",
          "name": "balance",
          "type": "uint256"
        }
      ],
      "payable": false,
      "stateMutability": "view",
      "type": "function"
    },
    {
      "constant": false,
      "inputs": [
        {
          "internalType": "address",
          "name": "_to",
          "type": "address"
        },
        {
          "internalType": "uint256",
          "name": "_value",
          "type": "uint256"
        }
      ],
      "name": "transfer",
      "outputs": [
        {
          "internalType": "bool",
          "name": "success",
          "type": "bool"
        }
      ],
      "payable": false,
      "stateMutability": "nonpayable",
      "type": "function"
    },
    {
      "constant": false,
      "inputs": [
        {
          "internalType": "address",
          "name": "_from",
          "type": "address"
        },
        {
          "internalType": "address",
          "name": "_to",
          "type": "address"
        },
        {
          "internalType": "uint256",
          "name": "_value",
          "type": "uint256"
        }
      ],
      "name": "transferFrom",
      "outputs": [
        {
          "internalType": "bool",
          "name": "success",
          "type": "bool"
        }
      ],
      "payable": false,
      "stateMutability": "nonpayable",
      "type": "function"
    },
    {
      "constant": false,
      "inputs": [
        {
          "internalType": "address",
          "name": "_spender",
          "type": "address"
        },
        {
          "internalType": "uint256",
          "name": "_value",
          "type": "uint256"
        }
      ],
      "name": "approve",
      "outputs": [
        {
          "internalType": "bool",
          "name": "success",
          "type": "bool"
        }
      ],
      "payable": false,
      "stateMutability": "nonpayable",
      "type": "function"
    },
    {
      "constant": true,
      "inputs": [
        {
          "internalType": "address",
          "name": "_owner",
          "type": "address"
        },
        {
          "internalType": "address",
          "name": "_spender",
          "type": "address"
        }
      ],
      "name": "allowance",
      "outputs": [
        {
          "internalType": "uint256",
          "name": "remaining",
          "type": "uint256"
        }
      ],
      "payable": false,
      "stateMutability": "view",
      "type": "function"
    }
  ],
  "bytecode": "0x608060405234801561001057600080fd5b506001600281905550600160048190555060016006819055506001600881905550612ea8806100406000396000f3fe608060405234801561001057600080fd5b506004361061012c5760003560e01c806392fc3b08116100ad578063dd62ed3e11610071578063dd62ed3e14610924578063e03536f31461099c578063e68f948c146109e8578063e82de7e814610ae1578063f02eafd114610b475761012c565b806392fc3b08146105d157806397af2930146105ff5780639d947bcb146106e7578063a88ae815146107d6578063a9059cbb146108be5761012c565b80632d5fe944116100f45780632d5fe94414610380578063486ff9ae146103e65780634b384cbc146104345780635dfe9291146104f957806370a08231146105795761012c565b806304580b4e14610131578063095ea7b31461020057806323b872dd1461026657806326606448146102ec5780632c5681201461031a575b600080fd5b6101fe6004803603606081101561014757600080fd5b810190808035906020019064010000000081111561016457600080fd5b82018360208201111561017657600080fd5b8035906020019184600183028401116401000000008311171561019857600080fd5b91908080601f016020809104026020016040519081016040528093929190818152602001838380828437600081840152601f19601f8201169050808301925050505050505091929192908035906020019092919080359060200190929190505050610bb4565b005b61024c6004803603604081101561021657600080fd5b81019080803573ffffffffffffffffffffffffffffffffffffffff16906020019092919080359060200190929190505050610cc8565b604051808215151515815260200191505060405180910390f35b6102d26004803603606081101561027c57600080fd5b81019080803573ffffffffffffffffffffffffffffffffffffffff169060200190929190803573ffffffffffffffffffffffffffffffffffffffff16906020019092919080359060200190929190505050610dba565b604051808215151515815260200191505060405180910390f35b6103186004803603602081101561030257600080fd5b8101908080359060200190929190505050611061565b005b6103666004803603604081101561033057600080fd5b81019080803573ffffffffffffffffffffffffffffffffffffffff16906020019092919080359060200190929190505050611359565b604051808215151515815260200191505060405180910390f35b6103cc6004803603604081101561039657600080fd5b81019080803573ffffffffffffffffffffffffffffffffffffffff169060200190929190803590602001909291905050506113e4565b604051808215151515815260200191505060405180910390f35b610432600480360360408110156103fc57600080fd5b8101908080359060200190929190803573ffffffffffffffffffffffffffffffffffffffff16906020019092919050505061146f565b005b6104f76004803603604081101561044a57600080fd5b810190808035906020019064010000000081111561046757600080fd5b82018360208201111561047957600080fd5b8035906020019184600183028401116401000000008311171561049b57600080fd5b91908080601f016020809104026020016040519081016040528093929190818152602001838380828437600081840152601f19601f820116905080830192505050505050509192919290803590602001909291905050506117ac565b005b6105256004803603602081101561050f57600080fd5b81019080803590602001909291905050506118c0565b604051808473ffffffffffffffffffffffffffffffffffffffff1673ffffffffffffffffffffffffffffffffffffffff16815260200183815260200182151515158152602001935050505060405180910390f35b6105bb6004803603602081101561058f57600080fd5b81019080803573ffffffffffffffffffffffffffffffffffffffff16906020019092919050505061199a565b6040518082815260200191505060405180910390f35b6105fd600480360360208110156105e757600080fd5b81019080803590602001909291905050506119e2565b005b61062b6004803603602081101561061557600080fd5b8101908080359060200190929190505050611cc6565b604051808573ffffffffffffffffffffffffffffffffffffffff1673ffffffffffffffffffffffffffffffffffffffff16815260200180602001848152602001838152602001828103825285818151815260200191508051906020019080838360005b838110156106a957808201518184015260208101905061068e565b50505050905090810190601f1680156106d65780820380516001836020036101000a031916815260200191505b509550505050505060405180910390f35b6107d4600480360360808110156106fd57600080fd5b81019080803590602001909291908035906020019064010000000081111561072457600080fd5b82018360208201111561073657600080fd5b8035906020019184600183028401116401000000008311171561075857600080fd5b91908080601f016020809104026020016040519081016040528093929190818152602001838380828437600081840152601f19601f82011690508083019250505050505050919291929080359060200190929190803573ffffffffffffffffffffffffffffffffffffffff169060200190929190505050611e3d565b005b610802600480360360208110156107ec57600080fd5b81019080803590602001909291905050506120fd565b604051808573ffffffffffffffffffffffffffffffffffffffff1673ffffffffffffffffffffffffffffffffffffffff16815260200180602001848152602001838152602001828103825285818151815260200191508051906020019080838360005b83811015610880578082015181840152602081019050610865565b50505050905090810190601f1680156108ad5780820380516001836020036101000a031916815260200191505b509550505050505060405180910390f35b61090a600480360360408110156108d457600080fd5b81019080803573ffffffffffffffffffffffffffffffffffffffff16906020019092919080359060200190929190505050612274565b604051808215151515815260200191505060405180910390f35b6109866004803603604081101561093a57600080fd5b81019080803573ffffffffffffffffffffffffffffffffffffffff169060200190929190803573ffffffffffffffffffffffffffffffffffffffff16906020019092919050505061240b565b6040518082815260200191505060405180910390f35b6109e6600480360360808110156109b257600080fd5b8101908080359060200190929190803590602001909291908035906020019092919080359060200190929190505050612492565b005b610adf600480360360a08110156109fe57600080fd5b810190808035906020019092919080359060200190640100000000811115610a2557600080fd5b820183602082011115610a3757600080fd5b80359060200191846001830284011164010000000083111715610a5957600080fd5b91908080601f016020809104026020016040519081016040528093929190818152602001838380828437600081840152601f19601f8201169050808301925050505050505091929192908035906020019092919080359060200190929190803573ffffffffffffffffffffffffffffffffffffffff169060200190929190505050612687565b005b610b2d60048036036040811015610af757600080fd5b81019080803573ffffffffffffffffffffffffffffffffffffffff16906020019092919080359060200190929190505050612944565b604051808215151515815260200191505060405180910390f35b610b7360048036036020811015610b5d57600080fd5b81019080803590602001909291905050506129cf565b604051808781526020018681526020018515151515815260200184151515158152602001838152602001828152602001965050505050505060405180910390f35b610bbc612c4f565b6040518060a001604052803373ffffffffffffffffffffffffffffffffffffffff16815260200160045481526020018581526020018481526020018381525090506005819080600181540180825580915050906001820390600052602060002090600502016000909192909190915060008201518160000160006101000a81548173ffffffffffffffffffffffffffffffffffffffff021916908373ffffffffffffffffffffffffffffffffffffffff160217905550602082015181600101556040820151816002019080519060200190610c98929190612c94565b50606082015181600301556080820151816004015550505060046000815480929190600101919050555050505050565b600081600160003373ffffffffffffffffffffffffffffffffffffffff1673ffffffffffffffffffffffffffffffffffffffff16815260200190815260200160002060008573ffffffffffffffffffffffffffffffffffffffff1673ffffffffffffffffffffffffffffffffffffffff168152602001908152602001600020819055508273ffffffffffffffffffffffffffffffffffffffff163373ffffffffffffffffffffffffffffffffffffffff167f8c5be1e5ebec7d5bd14f71427d1e84f3dd0314c0f7b2291e5b200ac8c7c3b925846040518082815260200191505060405180910390a36001905092915050565b6000610e0d826000808773ffffffffffffffffffffffffffffffffffffffff1673ffffffffffffffffffffffffffffffffffffffff16815260200190815260200160002054612abd90919063ffffffff16565b6000808673ffffffffffffffffffffffffffffffffffffffff1673ffffffffffffffffffffffffffffffffffffffff16815260200190815260200160002081905550610ede82600160008773ffffffffffffffffffffffffffffffffffffffff1673ffffffffffffffffffffffffffffffffffffffff16815260200190815260200160002060003373ffffffffffffffffffffffffffffffffffffffff1673ffffffffffffffffffffffffffffffffffffffff16815260200190815260200160002054612abd90919063ffffffff16565b600160008673ffffffffffffffffffffffffffffffffffffffff1673ffffffffffffffffffffffffffffffffffffffff16815260200190815260200160002060003373ffffffffffffffffffffffffffffffffffffffff1673ffffffffffffffffffffffffffffffffffffffff16815260200190815260200160002081905550610faf826000808673ffffffffffffffffffffffffffffffffffffffff1673ffffffffffffffffffffffffffffffffffffffff16815260200190815260200160002054612b0790919063ffffffff16565b6000808573ffffffffffffffffffffffffffffffffffffffff1673ffffffffffffffffffffffffffffffffffffffff168152602001908152602001600020819055508273ffffffffffffffffffffffffffffffffffffffff168473ffffffffffffffffffffffffffffffffffffffff167fddf252ad1be2c89b69c2b068fc378daa952ba7f163c4a11628f55a4df523b3ef846040518082815260200191505060405180910390a3600190509392505050565b60004290506000620151809050611076612d14565b6009600185038154811061108657fe5b90600052602060002090600402016040518060800160405290816000820160009054906101000a900473ffffffffffffffffffffffffffffffffffffffff1673ffffffffffffffffffffffffffffffffffffffff1673ffffffffffffffffffffffffffffffffffffffff16815260200160018201548152602001600282015481526020016003820160009054906101000a900460ff161515151581525050905061112e612d54565b600760018360400151038154811061114257fe5b90600052602060002090600802016040518061012001604052908160008201548152602001600182015481526020016002820154815260200160038201548152602001600482015481526020016005820160009054906101000a900460ff161515151581526020016005820160019054906101000a900460ff16151515158152602001600682015481526020016007820154815250509050600115156111e83387612944565b151514806111fe5750600115158160c001511515145b8061120f5750828160600151038410155b611264576040517f08c379a0000000000000000000000000000000000000000000000000000000008152600401808060200182810382526040815260200180612e0f6040913960400191505060405180910390fd5b61126c612d14565b6040518060800160405280846000015173ffffffffffffffffffffffffffffffffffffffff168152602001846020015181526020018460400151815260200160001515815250905080600960018803815481106112c557fe5b906000526020600020906004020160008201518160000160006101000a81548173ffffffffffffffffffffffffffffffffffffffff021916908373ffffffffffffffffffffffffffffffffffffffff160217905550602082015181600101556040820151816002015560608201518160030160006101000a81548160ff021916908315150217905550905050505050505050565b60008273ffffffffffffffffffffffffffffffffffffffff166005600184038154811061138257fe5b906000526020600020906005020160000160009054906101000a900473ffffffffffffffffffffffffffffffffffffffff1673ffffffffffffffffffffffffffffffffffffffff1614156113d957600190506113de565b600090505b92915050565b60008273ffffffffffffffffffffffffffffffffffffffff166003600184038154811061140d57fe5b906000526020600020906005020160000160009054906101000a900473ffffffffffffffffffffffffffffffffffffffff1673ffffffffffffffffffffffffffffffffffffffff1614156114645760019050611469565b600090505b92915050565b611477612d54565b6007600184038154811061148757fe5b90600052602060002090600802016040518061012001604052908160008201548152602001600182015481526020016002820154815260200160038201548152602001600482015481526020016005820160009054906101000a900460ff161515151581526020016005820160019054906101000a900460ff1615151515815260200160068201548152602001600782015481525050905061152d3382602001516113e4565b611582576040517f08c379a0000000000000000000000000000000000000000000000000000000008152600401808060200182810382526025815260200180612e4f6025913960400191505060405180910390fd5b61158a612d14565b60405180608001604052808473ffffffffffffffffffffffffffffffffffffffff16815260200160085481526020018581526020016001151581525090506009819080600181540180825580915050906001820390600052602060002090600402016000909192909190915060008201518160000160006101000a81548173ffffffffffffffffffffffffffffffffffffffff021916908373ffffffffffffffffffffffffffffffffffffffff160217905550602082015181600101556040820151816002015560608201518160030160006101000a81548160ff02191690831515021790555050505060086000815480929190600101919050555061168e612d54565b60405180610120016040528084600001518152602001846020015181526020018460400151815260200184606001518152602001846080015181526020018460a00151151581526020018460c001511515815260200160018560e001510181526020018461010001518152509050806007600187038154811061170d57fe5b9060005260206000209060080201600082015181600001556020820151816001015560408201518160020155606082015181600301556080820151816004015560a08201518160050160006101000a81548160ff02191690831515021790555060c08201518160050160016101000a81548160ff02191690831515021790555060e0820151816006015561010082015181600701559050505050505050565b6117b4612da4565b6040518060a001604052803373ffffffffffffffffffffffffffffffffffffffff1681526020016002548152602001848152602001838152602001600081525090506003819080600181540180825580915050906001820390600052602060002090600502016000909192909190915060008201518160000160006101000a81548173ffffffffffffffffffffffffffffffffffffffff021916908373ffffffffffffffffffffffffffffffffffffffff160217905550602082015181600101556040820151816002019080519060200190611891929190612c94565b506060820151816003015560808201518160040155505050600260008154809291906001019190505550505050565b60008060006118cd612d14565b600960018603815481106118dd57fe5b90600052602060002090600402016040518060800160405290816000820160009054906101000a900473ffffffffffffffffffffffffffffffffffffffff1673ffffffffffffffffffffffffffffffffffffffff1673ffffffffffffffffffffffffffffffffffffffff16815260200160018201548152602001600282015481526020016003820160009054906101000a900460ff1615151515815250509050806000015181604001518260600151935093509350509193909250565b60008060008373ffffffffffffffffffffffffffffffffffffffff1673ffffffffffffffffffffffffffffffffffffffff168152602001908152602001600020549050919050565b6119ea612d54565b600760018303815481106119fa57fe5b90600052602060002090600802016040518061012001604052908160008201548152602001600182015481526020016002820154815260200160038201548152602001600482015481526020016005820160009054906101000a900460ff161515151581526020016005820160019054906101000a900460ff16151515158152602001600682015481526020016007820154815250509050611aa0338260400151611359565b80611ab55750611ab43382602001516113e4565b5b611b27576040517f08c379a000000000000000000000000000000000000000000000000000000000815260040180806020018281038252601e8152602001807f5469636b6574696e673a2077726f6e67206163636f756e74206f776e6572000081525060200191505060405180910390fd5b611b2f612d54565b611b3d338360400151611359565b15611baf5760405180610120016040528083600001518152602001836020015181526020018360400151815260200183606001518152602001836080015181526020018360a00151151581526020016001151581526020018360e0015181526020018361010001518152509050611c18565b60405180610120016040528083600001518152602001836020015181526020018360400151815260200183606001518152602001836080015181526020016001151581526020018360c00151151581526020018360e00151815260200183610100015181525090505b8060076001850381548110611c2957fe5b9060005260206000209060080201600082015181600001556020820151816001015560408201518160020155606082015181600301556080820151816004015560a08201518160050160006101000a81548160ff02191690831515021790555060c08201518160050160016101000a81548160ff02191690831515021790555060e082015181600601556101008201518160070155905050505050565b60006060600080611cd5612da4565b60036001870381548110611ce557fe5b90600052602060002090600502016040518060a00160405290816000820160009054906101000a900473ffffffffffffffffffffffffffffffffffffffff1673ffffffffffffffffffffffffffffffffffffffff1673ffffffffffffffffffffffffffffffffffffffff16815260200160018201548152602001600282018054600181600116156101000203166002900480601f016020809104026020016040519081016040528092919081815260200182805460018160011615610100020316600290048015611df75780601f10611dcc57610100808354040283529160200191611df7565b820191906000526020600020905b815481529060010190602001808311611dda57829003601f168201915b5050505050815260200160038201548152602001600482015481525050905080600001518160400151826060015183608001518292509450945094509450509193509193565b611e4733856113e4565b611eb9576040517f08c379a000000000000000000000000000000000000000000000000000000000815260040180806020018281038252601e8152602001807f5469636b6574696e673a2077726f6e67206163636f756e74206f776e6572000081525060200191505060405180910390fd5b611ec1612da4565b60036001860381548110611ed157fe5b90600052602060002090600502016040518060a00160405290816000820160009054906101000a900473ffffffffffffffffffffffffffffffffffffffff1673ffffffffffffffffffffffffffffffffffffffff1673ffffffffffffffffffffffffffffffffffffffff16815260200160018201548152602001600282018054600181600116156101000203166002900480601f016020809104026020016040519081016040528092919081815260200182805460018160011615610100020316600290048015611fe35780601f10611fb857610100808354040283529160200191611fe3565b820191906000526020600020905b815481529060010190602001808311611fc657829003601f168201915b5050505050815260200160038201548152602001600482015481525050905061200a612da4565b6040518060a001604052808473ffffffffffffffffffffffffffffffffffffffff1681526020018360200151815260200186815260200185815260200183608001518152509050806003600188038154811061206257fe5b906000526020600020906005020160008201518160000160006101000a81548173ffffffffffffffffffffffffffffffffffffffff021916908373ffffffffffffffffffffffffffffffffffffffff1602179055506020820151816001015560408201518160020190805190602001906120dd929190612c94565b506060820151816003015560808201518160040155905050505050505050565b6000606060008061210c612c4f565b6005600187038154811061211c57fe5b90600052602060002090600502016040518060a00160405290816000820160009054906101000a900473ffffffffffffffffffffffffffffffffffffffff1673ffffffffffffffffffffffffffffffffffffffff1673ffffffffffffffffffffffffffffffffffffffff16815260200160018201548152602001600282018054600181600116156101000203166002900480601f01602080910402602001604051908101604052809291908181526020018280546001816001161561010002031660029004801561222e5780601f106122035761010080835404028352916020019161222e565b820191906000526020600020905b81548152906001019060200180831161221157829003601f168201915b5050505050815260200160038201548152602001600482015481525050905080600001518160400151826060015183608001518292509450945094509450509193509193565b60006122c7826000803373ffffffffffffffffffffffffffffffffffffffff1673ffffffffffffffffffffffffffffffffffffffff16815260200190815260200160002054612abd90919063ffffffff16565b6000803373ffffffffffffffffffffffffffffffffffffffff1673ffffffffffffffffffffffffffffffffffffffff1681526020019081526020016000208190555061235a826000808673ffffffffffffffffffffffffffffffffffffffff1673ffffffffffffffffffffffffffffffffffffffff16815260200190815260200160002054612b0790919063ffffffff16565b6000808573ffffffffffffffffffffffffffffffffffffffff1673ffffffffffffffffffffffffffffffffffffffff168152602001908152602001600020819055508273ffffffffffffffffffffffffffffffffffffffff163373ffffffffffffffffffffffffffffffffffffffff167fddf252ad1be2c89b69c2b068fc378daa952ba7f163c4a11628f55a4df523b3ef846040518082815260200191505060405180910390a36001905092915050565b6000600160008473ffffffffffffffffffffffffffffffffffffffff1673ffffffffffffffffffffffffffffffffffffffff16815260200190815260200160002060008373ffffffffffffffffffffffffffffffffffffffff1673ffffffffffffffffffffffffffffffffffffffff16815260200190815260200160002054905092915050565b61249a612d54565b600115156124a833876113e4565b1515141561250157604051806101200160405280600654815260200186815260200185815260200184815260200183815260200160011515815260200160001515815260200160008152602001600081525090506125b6565b6001151561250f3386611359565b1515141561256857604051806101200160405280600654815260200186815260200185815260200184815260200183815260200160001515815260200160011515815260200160008152602001600081525090506125b5565b604051806101200160405280600654815260200186815260200185815260200184815260200183815260200160001515815260200160001515815260200160008152602001600081525090505b5b60078190806001815401808255809150509060018203906000526020600020906008020160009091929091909150600082015181600001556020820151816001015560408201518160020155606082015181600301556080820151816004015560a08201518160050160006101000a81548160ff02191690831515021790555060c08201518160050160016101000a81548160ff02191690831515021790555060e0820151816006015561010082015181600701555050506006600081548092919060010191905055505050505050565b6126913386611359565b612703576040517f08c379a000000000000000000000000000000000000000000000000000000000815260040180806020018281038252601e8152602001807f5469636b6574696e673a2077726f6e67206163636f756e74206f776e6572000081525060200191505060405180910390fd5b61270b612c4f565b6005600187038154811061271b57fe5b90600052602060002090600502016040518060a00160405290816000820160009054906101000a900473ffffffffffffffffffffffffffffffffffffffff1673ffffffffffffffffffffffffffffffffffffffff1673ffffffffffffffffffffffffffffffffffffffff16815260200160018201548152602001600282018054600181600116156101000203166002900480601f01602080910402602001604051908101604052809291908181526020018280546001816001161561010002031660029004801561282d5780601f106128025761010080835404028352916020019161282d565b820191906000526020600020905b81548152906001019060200180831161281057829003601f168201915b50505050508152602001600382015481526020016004820154815250509050612854612c4f565b6040518060a001604052808473ffffffffffffffffffffffffffffffffffffffff1681526020018360200151815260200187815260200186815260200185815250905080600560018903815481106128a857fe5b906000526020600020906005020160008201518160000160006101000a81548173ffffffffffffffffffffffffffffffffffffffff021916908373ffffffffffffffffffffffffffffffffffffffff160217905550602082015181600101556040820151816002019080519060200190612923929190612c94565b50606082015181600301556080820151816004015590505050505050505050565b60008273ffffffffffffffffffffffffffffffffffffffff166009600184038154811061296d57fe5b906000526020600020906004020160000160009054906101000a900473ffffffffffffffffffffffffffffffffffffffff1673ffffffffffffffffffffffffffffffffffffffff1614156129c457600190506129c9565b600090505b92915050565b6000806000806000806129e0612d54565b600760018903815481106129f057fe5b90600052602060002090600802016040518061012001604052908160008201548152602001600182015481526020016002820154815260200160038201548152602001600482015481526020016005820160009054906101000a900460ff161515151581526020016005820160019054906101000a900460ff16151515158152602001600682015481526020016007820154815250509050806020015181606001518260a001518360c001518460e001518561010001519650965096509650965096505091939550919395565b6000612aff83836040518060400160405280601e81526020017f536166654d6174683a207375627472616374696f6e206f766572666c6f770000815250612b8f565b905092915050565b600080828401905083811015612b85576040517f08c379a000000000000000000000000000000000000000000000000000000000815260040180806020018281038252601b8152602001807f536166654d6174683a206164646974696f6e206f766572666c6f77000000000081525060200191505060405180910390fd5b8091505092915050565b6000838311158290612c3c576040517f08c379a00000000000000000000000000000000000000000000000000000000081526004018080602001828103825283818151815260200191508051906020019080838360005b83811015612c01578082015181840152602081019050612be6565b50505050905090810190601f168015612c2e5780820380516001836020036101000a031916815260200191505b509250505060405180910390fd5b5060008385039050809150509392505050565b6040518060a00160405280600073ffffffffffffffffffffffffffffffffffffffff168152602001600081526020016060815260200160008152602001600081525090565b828054600181600116156101000203166002900490600052602060002090601f016020900481019282601f10612cd557805160ff1916838001178555612d03565b82800160010185558215612d03579182015b82811115612d02578251825591602001919060010190612ce7565b5b509050612d109190612de9565b5090565b6040518060800160405280600073ffffffffffffffffffffffffffffffffffffffff16815260200160008152602001600081526020016000151581525090565b604051806101200160405280600081526020016000815260200160008152602001600081526020016000815260200160001515815260200160001515815260200160008152602001600081525090565b6040518060a00160405280600073ffffffffffffffffffffffffffffffffffffffff168152602001600081526020016060815260200160008152602001600081525090565b612e0b91905b80821115612e07576000816000905550600101612def565b5090565b9056fe5469636b6574696e673a2077726f6e67206163636f756e74206f776e6572206f72206e6f742076616c696461746564206f72206e6f7420676f6f642074696d655469636b6574696e673a2077726f6e6720617274697374206163636f756e74206f776e6572a265627a7a72315820906f2f0cfd1ff8cce444bd76fba665a502804d4460426336d2aeba2e6fd05e3564736f6c634300050c0032",
  "source": "pragma solidity ^0.5.0;\r\n\r\nimport \"@openzeppelin/contracts/math/SafeMath.sol\";\r\n\r\ncontract ticketingSystem{\r\n    using SafeMath for uint;\r\n\r\n    mapping(address => uint) balances;\r\n    mapping(address => mapping(address => uint)) allowed;\r\n    //mapping(address => artist) public _artistProfile;\r\n\r\n\r\n    //structure of artist\r\n\r\n    struct artist{\r\n        address owner;\r\n        uint id;\r\n        string name;\r\n        uint artistCategory;\r\n        uint totalTickets;\r\n    }\r\n\r\n    uint numberOfArtists;\r\n    artist[] listArtists;\r\n\r\n    //structure of venue\r\n\r\n    struct venue{\r\n        address owner;\r\n        uint id;\r\n        string name;\r\n        uint capacity;\r\n        uint comission;\r\n    }\r\n\r\n    uint numberOfVenues;\r\n    venue[] listVenues;\r\n\r\n    //structure of concert\r\n\r\n    struct concert{\r\n        uint id;\r\n        uint artistId;\r\n        uint venueId;\r\n        uint date;\r\n        uint ticketPrice;\r\n        bool validatedByArtist;\r\n        bool validatedByVenue;\r\n        uint totalSoldTicket;\r\n        uint totalMoneyCollected;\r\n    }\r\n\r\n    uint numberOfConcerts;\r\n    concert[] listConcerts;\r\n\r\n    //structure of ticketingSystem\r\n\r\n    struct ticket{\r\n        address owner;\r\n        uint id;\r\n        uint concertId;\r\n        bool isAvailable;\r\n    }\r\n\r\n    uint numberOfTickets;\r\n    ticket[] listTickets;\r\n\r\n    /**\r\n     * Constructor\r\n     */\r\n\r\n    constructor () public {\r\n       numberOfArtists = 1;\r\n       numberOfVenues = 1;\r\n       numberOfConcerts = 1;\r\n       numberOfTickets = 1;\r\n    }\r\n\r\n    /** \r\n    * Functions artist\r\n    */\r\n\r\n    function createArtist(string memory _name, uint _artistCategory) public {\r\n        artist memory _artist = artist(msg.sender,numberOfArtists, _name, _artistCategory, 0);\r\n        //_artistProfile[msg.sender] = _artist;\r\n\r\n        listArtists.push(_artist);\r\n        numberOfArtists++;\r\n    }\r\n\r\n    function artistsRegister(uint _id) public view returns (address owner, string memory name, uint artistCategory, uint totalTicket){\r\n        artist memory _artist = listArtists[_id -1];\r\n        return (_artist.owner, _artist.name, _artist.artistCategory, _artist.totalTickets);\r\n    }\r\n\r\n    function modifyArtist(uint _id, string memory _name, uint _artistCategory, address payable _newOwner) public {\r\n    \r\n        require(isArtistOwner(msg.sender, _id),\r\n            \"Ticketing: wrong account owner\"\r\n        );\r\n\r\n        artist memory oldArtist = listArtists[_id -1];\r\n        artist memory newArtist = artist(_newOwner,oldArtist.id, _name, _artistCategory, oldArtist.totalTickets);\r\n        \r\n        listArtists[_id -1] = newArtist;\r\n    }\r\n\r\n    function isArtistOwner(address account, uint idArtist) public view returns (bool) {\r\n        if(listArtists[idArtist -1].owner == account)\r\n            return true;\r\n        else\r\n            return false;\r\n    }\r\n\r\n    /** \r\n    * Functions venue\r\n    */\r\n\r\n    function createVenue(string memory _name, uint _capacity, uint _standardComission) public {\r\n        venue memory _venue = venue(msg.sender,numberOfVenues, _name, _capacity, _standardComission);\r\n\r\n        listVenues.push(_venue);\r\n        numberOfVenues++;\r\n    }\r\n\r\n    function venuesRegister(uint _id) public view returns (address owner, string memory name, uint capacity, uint standardComission){\r\n        venue memory _venue = listVenues[_id -1];\r\n        return (_venue.owner, _venue.name, _venue.capacity, _venue.comission);\r\n    }\r\n\r\n    function modifyVenue(uint _id, string memory _name, uint _capacity, uint _standardComission, address payable _newOwner) public {\r\n    \r\n        require(isVenueOwner(msg.sender, _id),\r\n            \"Ticketing: wrong account owner\"\r\n        );\r\n\r\n        venue memory oldVenue = listVenues[_id -1];\r\n        venue memory newVenue = venue(_newOwner,oldVenue.id, _name, _capacity, _standardComission);\r\n        \r\n        listVenues[_id -1] = newVenue;\r\n    }\r\n\r\n    function isVenueOwner(address account, uint idVenue) public view returns (bool) {\r\n        if(listVenues[idVenue -1].owner == account)\r\n            return true;\r\n        else\r\n            return false;\r\n    }\r\n\r\n    /** \r\n    * Functions concerts\r\n    */\r\n\r\n    function createConcert(uint _artistId, uint _venueId, uint _concertDate, uint _ticketPrice) public {\r\n\r\n        concert memory _concert;\r\n\r\n        if(isArtistOwner(msg.sender, _artistId) == true)\r\n            _concert = concert(numberOfConcerts, _artistId, _venueId, _concertDate, _ticketPrice, true, false, 0, 0);\r\n        else if(isVenueOwner(msg.sender, _venueId) == true)\r\n            _concert = concert(numberOfConcerts, _artistId, _venueId, _concertDate, _ticketPrice, false, true, 0, 0);\r\n        else\r\n            _concert = concert(numberOfConcerts, _artistId, _venueId, _concertDate, _ticketPrice, false, false, 0, 0);\r\n\r\n        listConcerts.push(_concert);\r\n        numberOfConcerts++;\r\n    }\r\n\r\n    function concertsRegister(uint _id) public view returns (uint artistId, uint concertDate, bool validatedByArtist, bool validatedByVenue, uint totalSoldTicket, uint totalMoneyCollected){\r\n        concert memory _concert = listConcerts[_id -1];\r\n        return (_concert.artistId, _concert.date, _concert.validatedByArtist, _concert.validatedByVenue, _concert.totalSoldTicket, _concert.totalMoneyCollected);\r\n    }\r\n\r\n    function validateConcert(uint _concertId) public {\r\n\r\n        concert memory _concert = listConcerts[_concertId -1];\r\n\r\n        require(isVenueOwner(msg.sender, _concert.venueId) || isArtistOwner(msg.sender, _concert.artistId),\r\n            \"Ticketing: wrong account owner\"\r\n        );\r\n\r\n        concert memory newConcert;\r\n\r\n        if(isVenueOwner(msg.sender, _concert.venueId))\r\n            newConcert = concert(_concert.id, _concert.artistId, _concert.venueId, _concert.date, _concert.ticketPrice, _concert.validatedByArtist, true, _concert.totalSoldTicket, _concert.totalMoneyCollected);\r\n        else\r\n            newConcert = concert(_concert.id, _concert.artistId, _concert.venueId, _concert.date, _concert.ticketPrice, true, _concert.validatedByVenue, _concert.totalSoldTicket, _concert.totalMoneyCollected);\r\n        \r\n        listConcerts[_concertId -1] = newConcert;\r\n    }\r\n\r\n    function emitTicket(uint _concertId, address payable _ticketOwner) public {\r\n\r\n        concert memory _concert = listConcerts[_concertId -1];\r\n\r\n        require(isArtistOwner(msg.sender, _concert.artistId),\r\n            \"Ticketing: wrong artist account owner\"\r\n        );\r\n\r\n        ticket memory _ticket = ticket(_ticketOwner, numberOfTickets, _concertId, true);\r\n\r\n        listTickets.push(_ticket);\r\n        numberOfTickets++;\r\n\r\n        concert memory newConcert =  concert(_concert.id, _concert.artistId, _concert.venueId, _concert.date, _concert.ticketPrice, _concert.validatedByArtist, _concert.validatedByVenue, _concert.totalSoldTicket + 1, _concert.totalMoneyCollected);\r\n        listConcerts[_concertId -1] = newConcert;\r\n    }\r\n\r\n    function ticketsRegister(uint _id) public view returns (address owner, uint concertId, bool isAvailable){\r\n        ticket memory _ticket = listTickets[_id -1];\r\n        return (_ticket.owner, _ticket.concertId, _ticket.isAvailable);\r\n    }\r\n\r\n    function useTicket(uint _id) public {\r\n\r\n        uint actualTime = now;\r\n        uint oneDay = 60*60*24;\r\n        ticket memory _ticket = listTickets[_id -1];\r\n        concert memory _concert = listConcerts[_ticket.concertId -1];\r\n\r\n        require(isTicketOwner(msg.sender, _id) == true || _concert.validatedByVenue == true || actualTime >= _concert.date - oneDay,\r\n            \"Ticketing: wrong account owner or not validated or not good time\"\r\n        );\r\n\r\n        ticket memory newTicket = ticket(_ticket.owner, _ticket.id, _ticket.concertId, false);\r\n\r\n        listTickets[_id -1] = newTicket;\r\n    }\r\n\r\n    function isTicketOwner(address account, uint idTicket) public view returns (bool) {\r\n        if(listTickets[idTicket -1].owner == account)\r\n            return true;\r\n        else\r\n            return false;\r\n    }\r\n\r\n    /** \r\n    * Functions ERC20\r\n    */\r\n    \r\n    function balanceOf(address _owner) public view returns (uint balance){\r\n        return balances[_owner];\r\n    }\r\n\r\n    function transfer(address _to, uint _value) public returns (bool success) {\r\n        balances[msg.sender] = balances[msg.sender].sub(_value);\r\n        balances[_to] = balances[_to].add(_value);\r\n        emit Transfer(msg.sender, _to, _value);\r\n        return true;\r\n    }\r\n\r\n    function transferFrom(address _from, address _to, uint _value) public returns (bool success){\r\n        balances[_from] = balances[_from].sub(_value);\r\n        allowed[_from][msg.sender] = allowed[_from][msg.sender].sub(_value);\r\n        balances[_to] = balances[_to].add(_value);\r\n        emit Transfer(_from, _to, _value);\r\n        return true;\r\n    }\r\n    \r\n    function approve(address _spender, uint _value) public returns (bool success){\r\n        allowed[msg.sender][_spender] = _value;\r\n        emit Approval(msg.sender, _spender, _value);\r\n        return true;\r\n    }\r\n\r\n    function allowance(address _owner, address _spender) public view returns (uint remaining){\r\n        return allowed[_owner][_spender];\r\n    }\r\n\r\n    /**\r\n    * Events\r\n    */\r\n\r\n    event Transfer(\r\n        address indexed _from,\r\n        address indexed _to,\r\n        uint256 _value\r\n    );\r\n\r\n    event Approval(\r\n        address indexed _owner,\r\n        address indexed _spender,\r\n        uint256 _value\r\n    );\r\n}\r\n",
  "sourcePath": "C:/Users/vava7/OneDrive - De Vinci/Documents/Cours ESILV/Cours_5A/Monnaies numriques/TD_Ethereum/TD8/truffle/contracts/ticketingSystem.sol",
  "compiler": {
    "name": "solc",
    "version": "0.5.12+commit.7709ece9.Emscripten.clang"
  },
  "schemaVersion": "3.0.19",
  "updatedAt": "2019-12-26T17:37:18.000Z",
  "devdoc": {
    "methods": {}
  },
  "userdoc": {
    "methods": {
      "balanceOf(address)": {
        "notice": "Functions ERC20"
      },
      "constructor": "Constructor",
      "createArtist(string,uint256)": {
        "notice": "Functions artist"
      },
      "createConcert(uint256,uint256,uint256,uint256)": {
        "notice": "Functions concerts"
      },
      "createVenue(string,uint256,uint256)": {
        "notice": "Functions venue"
      }
    }
  }
}